:100000000C9466000C947D000C947D000C947D0093
:100010000C947D000C947D000C947D000C947D006C
:100020000C947D000C947D000C947D000C947D005C
:100030000C947D000C947D000C947D000C947D004C
:100040000C947D000C947D000C947D000C947D003C
:100050000C947D000C947D000C947D000C947D002C
:100060000C947D000C947D000C947D000C947D001C
:100070000C947D000C947D000C947D000C947D000C
:100080000C947D000C947D000C947D000C947D00FC
:100090000C947D000C947D000C947D000C947D00EC
:1000A0000C947D000C947D000C947D000C947D00DC
:1000B0000C947D000C947D000C947D000C947D00CC
:1000C0000C947D000C947D000C947D0011241FBEC7
:1000D000CFEFD1E2DEBFCDBF12E0A0E0B2E0E4ECB2
:1000E000F1E000E00BBF02C007900D92A030B10715
:1000F000D9F70E94CF000C94E0000C940000409AC5
:1001000085E08A95F1F7409880E991E00197F1F751
:100110000895662311F0419A01C0419882B90E9466
:100120007F0008950F931F9381B18FEF81B9399AA2
:10013000389A4198409884EF91E020E931E0F90144
:100140003197F1F70197D9F780E360E00E948900C9
:1001500000E516E4C8010197F1F780E360E00E9432
:100160008900C8010197F1F780E360E00E948900EF
:1001700088E592E00197F1F788E360E00E9489004A
:100180008CE060E00E94890081E060E00E948900CC
:1001900080E49FE10197F1F71F910F9108950E946C
:1001A000920083E761E00E94890082E860E00E949B
:1001B000890081E661E00E94890080E090E0089576
:0401C000F894FFCFE1
:00000001FF
