:100000000C9466000C947D000C947D000C947D0093
:100010000C947D000C947D000C947D000C947D006C
:100020000C947D000C947D000C947D000C947D005C
:100030000C947D000C947D000C947D000C947D004C
:100040000C947D000C947D000C947D000C947D003C
:100050000C947D000C947D000C947D000C947D002C
:100060000C947D000C947D000C947D000C947D001C
:100070000C947D000C947D000C947D000C947D000C
:100080000C947D000C947D000C947D000C947D00FC
:100090000C947D000C947D000C947D000C947D00EC
:1000A0000C947D000C947D000C947D000C947D00DC
:1000B0000C947D000C947D000C947D000C947D00CC
:1000C0000C947D000C947D000C947D0011241FBEC7
:1000D000CFEFD1E2DEBFCDBF12E0A0E0B2E0EAE4B4
:1000E000F1E000E00BBF02C007900D92A030B10715
:1000F000D9F70E947F000C94A3000C9400000E948A
:1001000086000E949C000E949400FBCF1092C500C4
:1001100087E68093C4001092C00088E18093C100FC
:1001200086E08093C2000895982F8091C00085FFDB
:10013000FCCF9093C60008958091C00087FFFCCF4C
:0A0140008091C6000895F894FFCFE7
:00000001FF
