:100000000C9466000C9485000C9485000C9485007B
:100010000C9485000C9485000C9485000C9485004C
:100020000C9485000C9485000C9485000C9485003C
:100030000C9485000C9485000C9485000C9485002C
:100040000C9485000C9485000C9485000C9485001C
:100050000C9485000C9485000C9485000C94E100B0
:100060000C9485000C9485000C9485000C948500FC
:100070000C9485000C9485000C9485000C948500EC
:100080000C9485000C9485000C9485000C948500DC
:100090000C9485000C9485000C9485000C948500CC
:1000A0000C9485000C9485000C9485000C948500BC
:1000B0000C9485000C9485000C9485000C948500AC
:1000C0000C9485000C9485000C94850011241FBEAF
:1000D000CFEFD1E2DEBFCDBF12E0A0E0B2E0E2E0C0
:1000E000F4E000E00BBF02C007900D92AE30B10704
:1000F000D9F712E0AEE0B2E001C01D92A231B10723
:10010000E1F70E9436010C94FF010C940000409A24
:1001100085E08A95F1F7409880E991E00197F1F741
:100120000895662311F0419A01C0419882B90E9456
:10013000870008950F931F9381B18FEF81B9399A8A
:10014000389A4198409884EF91E020E931E0F90134
:100150003197F1F70197D9F780E360E00E949100B1
:1001600000E516E4C8010197F1F780E360E00E9422
:100170009100C8010197F1F780E360E00E949100CF
:1001800088E592E00197F1F788E360E00E94910032
:100190008CE060E00E94910081E060E00E949100AC
:1001A00080E49FE10197F1F71F910F91089587383F
:1001B00011F480EC0895873C11F480E808958F5F76
:1001C00008951F920F920FB60F9211242F938F93C1
:1001D0009F9380910E0290910F02019690930F02CF
:1001E00080930E0285589E4189F510920F0210925D
:1001F0000E028091100290911102019690931102CB
:1002000080931002CC9711F51092110210921002F7
:1002100080910002909101020196909301028093D7
:100220000002CC9799F41092010210920002809182
:1002300002029091030201969093030280930202BE
:10024000489721F410920302109202029F918F911D
:100250002F910F900FBE0F901F90189514BC82E045
:1002600085BD16BC81E080936E000895AF92BF9269
:10027000CF92DF92EF92FF920F931F93DF93CF9372
:10028000CDB7DEB72A970FB6F894DEBF0FBECDBF4D
:10029000DE011196E4E0F2E08AE001900D928150D7
:1002A000E1F70E949A0014BC82E085BD16BC81E093
:1002B00080936E0078945E010894A11CB11C00919B
:1002C000100210911102E0900002F0900102C09023
:1002D0000202D090030287E860E00E949100C8010A
:1002E0006AE070E00E94EB01F501E80FF11D8081EA
:1002F00061E00E94910086E860E00E949100C801E0
:100300006AE070E00E94EB01CB016AE070E00E94BD
:10031000EB01F501E80FF11D808161E00E94910081
:1003200085E860E00E9491008AE361E00E9491000C
:1003300084E860E00E949100C7016AE070E00E94DA
:10034000EB01F501E80FF11D808161E00E94910051
:1003500083E860E00E949100C7016AE070E00E94BB
:10036000EB01CB016AE070E00E94EB01F501E80FC0
:10037000F11D808161E00E94910082E860E00E94AE
:1003800091008AE361E00E94910081E860E00E94B0
:100390009100C6016AE070E00E94EB01F501E80FF0
:1003A000F11D808161E00E94910080E860E00E9480
:1003B0009100C6016AE070E00E94EB01CB016AE0A7
:1003C00070E00E94EB01F501E80FF11D808161E012
:1003D0000E94910074CFAA1BBB1B51E107C0AA1F4A
:1003E000BB1FA617B70710F0A61BB70B881F991FD6
:1003F0005A95A9F780959095BC01CD010895F89480
:02040000FFCF2C
:0E04020032000A0030313233343536373839A3
:00000001FF
