:100000000C9466000C947D000C947D000C947D0093
:100010000C947D000C947D000C947D000C947D006C
:100020000C947D000C947D000C947D000C947D005C
:100030000C947D000C947D000C947D000C947D004C
:100040000C947D000C947D000C947D000C947D003C
:100050000C947D000C947D000C947D000C947D002C
:100060000C947D000C947D000C947D000C947D001C
:100070000C947D000C947D000C947D000C947D000C
:100080000C947D000C947D000C947D000C947D00FC
:100090000C947D000C947D000C947D000C947D00EC
:1000A0000C947D000C947D000C947D000C947D00DC
:1000B0000C947D000C947D000C947D000C947D00CC
:1000C0000C947D000C947D000C947D0011241FBEC7
:1000D000CFEFD1E2DEBFCDBF12E0A0E0B2E0E0EBB7
:1000E000F1E000E00BBF02C007900D92A030B10715
:1000F000D9F70E94A2000C94D6000C9400004FE0A7
:100100004AB930EF3BB980EA9FE0FC013197F1F743
:1001100029B13AB94BB90197F1F789B18F70207FB6
:10012000822B809508951F930E947F00182F80E4F2
:100130009CE90197F1F70E947F00181310E0812FCE
:100140001F910895FF920F931F93CF93DF938FEF2B
:1001500084B915B813B8C0E0D0E0FF24FA9400E9E0
:1001600011E002C0C0E0D0E00E949300882369F053
:100170002097D1F7F3B888EE93E0F8013197F1F7C3
:100180000197D9F7C1E0D0E0EFCFF3B888EE93E064
:10019000F8013197F1F70197D9F713B888EE93E09A
:1001A000F8013197F1F70197D9F7DCCFF894FFCF39
:00000001FF
