:100000000C9466000C947D000C947D000C947D0093
:100010000C947D000C947D000C947D000C947D006C
:100020000C947D000C947D000C947D000C947D005C
:100030000C947D000C947D000C947D000C947D004C
:100040000C947D000C947D000C947D000C947D003C
:100050000C947D000C947D000C947D000C947D002C
:100060000C947D000C947D000C947D000C947D001C
:100070000C947D000C947D000C947D000C947D000C
:100080000C947D000C947D000C947D000C947D00FC
:100090000C947D000C947D000C947D000C947D00EC
:1000A0000C947D000C947D000C947D000C947D00DC
:1000B0000C947D000C947D000C947D000C947D00CC
:1000C0000C947D000C947D000C947D0011241FBEC7
:1000D000CFEFD1E2DEBFCDBF12E0A0E0B2E0E6EDAF
:1000E000F1E000E00BBF02C007900D92A030B10715
:1000F000D9F70E94A8000C94E9000C94000080E459
:1001000080937C0087E880937A00089590917C002A
:100110008770987F892B80937C0080917A0080641F
:1001200080937A0080917A0086FDFCCF2091780040
:1001300030917900C90108951F93182F289880E005
:100140000E94E300812F0E94E300289A1F910895E6
:100150001F93CF93DF930E94DE00209A289A10E02D
:10016000C0E9D1E0812F0E949C0088EC90E0FE0164
:100170003197F1F70197D9F71F5F113898F310E025
:10018000F1CF1092C50087E68093C4001092C000A2
:1001900088E18093C10086E08093C2000895982F83
:1001A0008091C00085FFFCCF9093C6000895809198
:1001B000C00087FFFCCF8091C600089586E084B917
:1001C00081E58CBD08958EBD0DB407FEFDCF8EB5C3
:0601D0000895F894FFCF32
:00000001FF
