:100000000C9466000C947D000C947D000C947D0093
:100010000C947D000C947D000C947D000C947D006C
:100020000C947D000C947D000C947D000C947D005C
:100030000C947D000C947D000C947D000C947D004C
:100040000C947D000C947D000C947D000C947D003C
:100050000C947D000C947D000C947D000C947D002C
:100060000C947D000C947D000C947D000C947D001C
:100070000C947D000C947D000C947D000C947D000C
:100080000C947D000C947D000C947D000C947D00FC
:100090000C947D000C947D000C947D000C947D00EC
:1000A0000C947D000C947D000C947D000C947D00DC
:1000B0000C947D000C947D000C947D000C947D00CC
:1000C0000C947D000C947D000C947D0011241FBEC7
:1000D000CFEFD1E2DEBFCDBF12E0A0E0B2E0EEE4B0
:1000E000F4E000E00BBF02C007900D92A030B10712
:1000F000D9F70E94FC000C9425020C9400004FE0FC
:100100004AB930EF3BB980EA9FE0FC013197F1F743
:1001100029B13AB94BB90197F1F789B18F70207FB6
:10012000822B809508951F930E947F00182F80E4F2
:100130009CE90197F1F70E947F00181310E0812FCE
:100140001F910895409A85E08A95F1F7409880E9DB
:1001500091E00197F1F70895662311F0419A01C0EB
:10016000419882B90E94A20008950F931F9381B114
:100170008FEF81B9399A389A4198409884EF91E08D
:1001800020E931E0F9013197F1F70197D9F780E3E0
:1001900060E00E94AC0000E516E4C8010197F1F7A9
:1001A00080E360E00E94AC00C8010197F1F780E3B2
:1001B00060E00E94AC0088E592E00197F1F788E3E7
:1001C00060E00E94AC008CE060E00E94AC0081E046
:1001D00060E00E94AC0080E49FE10197F1F71F917D
:1001E0000F910895873811F480EC0895873C11F43D
:1001F00080E808958F5F0895EF92FF921F93CF9349
:10020000DF930E94B50010E8C0E0D0E080E9E82E5E
:1002100081E0F82E02C0C1E0D0E00E949300882364
:10022000E1F3CD2B19F0C0E0D0E0F7CFC1E0D0E092
:10023000843209F485C0853280F4843109F447C0E2
:10024000853128F48131E9F0823139F72DC08132CE
:1002500009F450C0823209F760C0843409F4A9C09F
:10026000853430F4813409F47EC08234B1F68EC016
:10027000823809F4C4C0843809F4D4C0813869F6DE
:10028000ABC081E361E00E94AC00812F0E94F200CC
:10029000182F60E00E94AC0080ED97E0F7013197E5
:1002A000F1F70197D9F7B7CF82E361E00E94AC0084
:1002B000812F0E94F200182F60E00E94AC0080EDB8
:1002C00097E0F7013197F1F70197D9F7A4CF83E3CE
:1002D00061E00E94AC00812F0E94F200182F60E0C4
:1002E0000E94AC0080ED97E0F7013197F1F701979C
:1002F000D9F791CF84E361E00E94AC00812F0E9486
:10030000F200182F60E00E94AC0080ED97E0F7014A
:100310003197F1F70197D9F77ECF85E361E00E942D
:10032000AC00812F0E94F200182F60E00E94AC0008
:1003300080ED97E0F7013197F1F70197D9F76BCF8F
:1003400086E361E00E94AC00812F0E94F200182F2A
:1003500060E00E94AC0080ED97E0F7013197F1F783
:100360000197D9F758CF87E361E00E94AC00812F55
:100370000E94F200182F60E00E94AC0080ED97E030
:10038000F7013197F1F70197D9F745CF88E361E09D
:100390000E94AC00812F0E94F200182F60E00E94A2
:1003A000AC0080ED97E0F7013197F1F70197D9F7AD
:1003B00032CF89E361E00E94AC00812F0E94F200FD
:1003C000182F60E00E94AC0080ED97E0F7013197B4
:1003D000F1F70197D9F71FCF8AE261E00E94AC00E4
:1003E000812F0E94F200182F60E00E94AC0080ED87
:1003F00097E0F7013197F1F70197D9F70CCF80E338
:1004000061E00E94AC00812F0E94F200182F60E092
:100410000E94AC0080ED97E0F7013197F1F701976A
:10042000D9F7F9CE83E261E00E94AC00812F0E94EF
:10043000F200182F60E00E94AC0080ED97E0F70119
:0E0440003197F1F70197D9F7E6CEF894FFCF88
:00000001FF
