:100000000C9466000C947D000C947D000C947D0093
:100010000C947D000C947D000C947D000C947D006C
:100020000C947D000C947D000C947D000C947D005C
:100030000C947D000C947D000C947D000C947D004C
:100040000C947D000C947D000C947D000C947D003C
:100050000C947D000C947D000C947D000C947D002C
:100060000C947D000C947D000C947D000C947D001C
:100070000C947D000C947D000C947D000C947D000C
:100080000C947D000C947D000C947D000C947D00FC
:100090000C947D000C947D000C947D000C947D00EC
:1000A0000C947D000C947D000C947D000C947D00DC
:1000B0000C947D000C947D000C947D000C947D00CC
:1000C0000C947D000C947D000C947D0011241FBEC7
:1000D000CFEFD1E2DEBFCDBF12E0A0E0B2E0ECE2B4
:1000E000F1E000E00BBF02C007900D92A030B10715
:1000F000D9F70E947F000C9494000C94000081E0DA
:100100008AB920E931E0589A86EA90E0F9013197FE
:10011000F1F70197D9F7589886EA90E0F9013197FD
:0C012000F1F70197D9F7EFCFF894FFCF6B
:00000001FF
