:100000000C9466000C947D000C947D000C947D0093
:100010000C947D000C947D000C947D000C947D006C
:100020000C947D000C947D000C947D000C947D005C
:100030000C947D000C947D000C947D000C947D004C
:100040000C947D000C947D000C947D000C947D003C
:100050000C947D000C947D000C947D000C947F002A
:100060000C947D000C947D000C947D000C947D001C
:100070000C947D000C947D000C947D000C947D000C
:100080000C947D000C947D000C947D000C947D00FC
:100090000C947D000C947D000C947D000C947D00EC
:1000A0000C947D000C947D000C947D000C947D00DC
:1000B0000C947D000C947D000C947D000C947D00CC
:1000C0000C947D000C947D000C947D0011241FBEC7
:1000D000CFEFD1E2DEBFCDBF12E0A0E0B2E0EAE4B4
:1000E000F1E000E00BBF02C007900D92A030B10715
:1000F000D9F70E9499000C94A3000C9400001F9261
:100100000F920FB60F9211248F939F9385B191E0B8
:10011000892785B99F918F910F900FBE0F901F90E7
:10012000189514BC84E085BD16BC81E080936E00F8
:100130000895209A14BC84E085BD16BC81E08093AC
:0A0140006E007894FFCFF894FFCF13
:00000001FF
