:100000000C9466000C947D000C947D000C947D0093
:100010000C947D000C947D000C947D000C947D006C
:100020000C947D000C947D000C947D000C947D005C
:100030000C947D000C947D000C947D000C947D004C
:100040000C947D000C947D000C947D000C947D003C
:100050000C947D000C947D000C947D000C947D002C
:100060000C947D000C947D000C947D000C947D001C
:100070000C947D000C947D000C947D000C947D000C
:100080000C947D000C947D000C947D000C947D00FC
:100090000C947D000C947D000C947D000C947D00EC
:1000A0000C947D000C947D000C947D000C947D00DC
:1000B0000C947D000C947D000C947D000C947D00CC
:1000C0000C947D000C947D000C947D0011241FBEC7
:1000D000CFEFD1E2DEBFCDBF12E0A0E0B2E0E8E3B7
:1000E000F2E000E00BBF02C007900D92A030B10714
:1000F000D9F70E94D1000C941A010C94000080E4FE
:1001000080937C0087E880937A00089590917C002A
:100110008770987F892B80937C0080917A0080641F
:1001200080937A0080917A0086FDFCCF2091780040
:1001300030917900C9010895CF93DF93EC0187E2F4
:10014000C031D80758F5CE0168EE73E00E94060171
:10015000862F805D0E94F700CE0168EE73E00E945A
:10016000060164E670E00E940601862F805D0E9411
:10017000F700CE0164E670E00E9406016AE070E0DC
:100180000E940601862F805D0E94F700CE016AE082
:1001900070E00E940601805D0E94F700DF91CF9120
:1001A0000895CF93DF930E94E9000E947F00C0E989
:1001B000D1E080E00E9486000E949C008AE00E94BC
:1001C000F70088E893E1FE013197F1F70197D9F73D
:1001D000F0CF1092C50087E68093C4001092C00053
:1001E00088E18093C10086E08093C2000895982F33
:1001F0008091C00085FFFCCF9093C6000895809148
:10020000C00087FFFCCF8091C6000895AA1BBB1BCE
:1002100051E107C0AA1FBB1FA617B70710F0A61B06
:10022000B70B881F991F5A95A9F780959095BC0127
:08023000CD010895F894FFCF01
:00000001FF
